S0150000382E204C696E657472616365722E7372656380
S113000045C0000060C000005EC000005CC000008D
S11300105AC0000058C0000056C0000054C0000080
S113002052C00000AAC000004EC000004CC0000036
S11300304AC0000048C0000046C000005EC0000086
S113004042C0000040C000003EC000003CC00000B0
S11300503AC0000038C0000036C0000034C00000C0
S113006032C0000030C000002EC000002CC00000D0
S11300702AC0000028C0000026C0000024C00000E0
S113008022C0000020C000001EC0000011241FBEBA
S1130090CFEFD0E1DEBFCDBF11E0A0E0B1E0EEE8EC
S11300A0F3E000E00BBF02C007900D92A030B1074F
S11300B0D9F721E0A0E0B1E001C01D92A430B2075D
S11300C0E1F702D062C19CCF2FEF8BE792E9215078
S11300D080409040E1F700C00000F0D0AAD0BAD030
S11300E0F1D0F4D0EC01C7D0CE01D7D08FE99FE096
S11300F00197F1F700C00000F3CF1F920F920FB6E3
S11301000F9211240BB60F922F933F938F939F93CB
S1130110EF93FF93CF93DF9300D000D0CDB7DEB73A
S113012089E089838CE08A8386E08B8383E08C83F7
S113013080910201909103019C012F5F3F4F309306
S113014003012093020183709927FE01E80FF91F30
S113015081818BBB0F900F900F900F90DF91CF9107
S1130160FF91EF919F918F913F912F910F900BBE33
S11301700F900FBE0F901F9018951F920F920FB6FD
S11301800F9211240BB60F922F933F938F939F934B
S1130190EF93FF93CF93DF9300D000D0CDB7DEB7BA
S11301A083E0898386E08A838CE08B8389E08C8377
S11301B080910001909101019C012F5F3F4F30938A
S11301C001012093000183709927FE01E80FF91FB4
S11301D0818188BB0F900F900F900F90DF91CF918A
S11301E0FF91EF919F918F913F912F910F900BBEB3
S11301F00F900FBE0F901F901895BC01181619068A
S113020024F087B78D7F87BF089589E09DE396D05A
S1130210615061BF0895BC011816190624F087B710
S11302208F7687BF089589E09DE388D0615063BDD0
S11302300895F8948AB38F608ABB83B78F6183BFB4
S113024012BE87B7826087BF86B78D7F86BF10BE18
S113025078940895F89487B38F6087BB85B58D61D2
S113026085BD14BC87B7806887BF86B78F7E86BF7D
S113027010BE78940895009761F048EBBC014603E2
S11302809001479F300D1124C9018C509E4FB5CF6A
S1130290089584EF91E0B1CF0895009759F048E4B0
S11302A0489F9001499F300D1124C9018C509E4FE5
S11302B0B2CF089584EF91E0AECF089584B3807FE8
S11302C084BB089583B38F7090E00895282F83FF33
S11302D005C041E050E083E090E004C040E050E01D
S11302E080E090E022FF03C001964F5F5F4F21FF43
S11302F003C001974F5F5F4F20FF03C003974F5F19
S11303005F4F84309105A1F08C3F2FEF920799F055
S11303104130510591F48D3F2FEF920719F48EEF80
S11303209FEF08958330910541F482E090E00895B1
S113033082E090E008958EEF9FEF089597FB072EDB
S113034016F4009406D077FD08D00BD007FC05D036
S11303503EF4909581959F4F0895709561957F4FD8
S11303600895AA1BBB1B51E107C0AA1FBB1FA617F8
S1130370B70710F0A61BB70B881F991F5A95A9F74A
S111038080959095BC01CD010895F894FFCFAF
S9030000FC
