:020000040800F2
:10000000B00B0020E5370008A9350008AB35000823
:10001000AD350008AF350008B1350008000000001C
:10002000000000000000000000000000B3350008E0
:10003000B535000800000000B7350008B9350008E4
:10004000C1350008C3350008C5350008C7350008AC
:10005000C9350008CB350008CD350008F335000858
:10006000193600083F3600085B3600085D36000888
:100070005F36000861360008633600086536000800
:1000800067360008693600086B3600086D360008D0
:100090006F360008713600087336000875360008A0
:1000A00077360008793600087B3600087D36000870
:1000B0007F36000895360008A9360008AB360008E0
:1000C000AD360008AF360008B1360008B336000878
:1000D000B5360008B7360008B9360008BB36000848
:1000E000BD360008BF360008C13600082DE9F043D0
:1000F0009FB00FF29C16269CDFF8E48A02918DF8DF
:100100003B4000210B914FF0FF37044691461D46BE
:100110000AE019F8011B0298A0470028029000F09D
:10012000A4800B98401C0B9099F8000050B1252832
:10013000EFD10020002105900691079008910990C9
:100140000A9103E00B98A7E041F0010119F8010FB3
:100150002028F9D023280CD02B2804D02D2805D016
:10016000302809D083E041F00201EFE741F00401BB
:10017000ECE741F00801E9E741F01001E6E7002073
:100180000D900AE00D98404505DA00EB800302EB84
:100190004302303A0D9209F1010999F80020A2F1C9
:1001A00030000A28EED399F800002E2818BF0C97CB
:1001B00026D119F8010F2A2808D12868286009F1EA
:1001C000010950F8042B28600C9219E02D280CBF6F
:1001D00019F8010B002000220C920BE040B90C9A98
:1001E000424505DA02EB820203EB4203303B0C93FB
:1001F00009F1010999F80030A3F130020A2AEDD380
:10020000ADF83810304699F8001000F0BDFE08B186
:1002100019F8010B8DF83A009DF83A00682804BFE0
:1002200099F80010682903D162208DF83A0008E09F
:100230006C2804BF99F800006C2804D171218DF856
:100240003A1009F1010910A804902A4619F8013B57
:100250006946204600F060F838B910AA6946204681
:1002600000F08CF900287FF55FAF384614E02A28AB
:1002700085D12A682A6052F8040B2A6000280D9064
:1002800003D540420D9041F0040109F101098AE7CC
:10029000686A6C747A4C00001FB0BDE8F083622875
:1002A00020D0682811D06A2803D06C2827D0712864
:1002B00025D10868C01D20F007000860D0E90023A0
:1002C00008300860194610467047002A0A680A601C
:1002D000106803D0121D0A6000B217E0121D0A60F8
:1002E00080B217E0002A0A680A60106803D0121D65
:1002F0000A6040B20AE0121D0A60C0B20AE0002A99
:100300000A680A60106803D0121D0A60C11770479E
:10031000121D0A600021704770B51C460D46B4F1ED
:1003200025002E69114600F017811C386AD0001F85
:10033000022867D9133843D0093863D0801E16D0FD
:10034000401E1ED0401E02285CD9001F19D0401F3D
:1003500000F08380401E33D0401E00F0CD80C01ED0
:1003600000F0D880801E2BD0C01E29D0FAE068692A
:10037000421C6A610A680A6052F8043B0A603354FE
:10038000FAE095F83A000122FFF789FFC5E900017C
:100390000023994204DA6869411C69612D210DE04E
:1003A000288F810704D56869411C69612B2105E00C
:1003B000C00722D56869411C6961202131541CE0C5
:1003C00095F83A000022FFF76AFFC5E9000195F8A9
:1003D0003800010711D5D5E900230020834208BF6A
:1003E00082420AD044F02000782806D16869302182
:1003F0003154401C411C69613454214668693044C1
:10040000E86083E00868C01D20F007000860D0E9BC
:10041000002308300860C5E90023D5E90001C80FB2
:1004200004D06869411C69612D210DE0288F810786
:1004300004D56869411C69612B2105E0C00704D51A
:100440006869411C69612021315468693044E86061
:100450002146284600F0C4F98EE005F13A025078B2
:1004600020B14FF0FF340FF648205EE0107862288C
:1004700008D0682824D06A2812D06C282ED0712881
:100480000ED02BE00A680A6052F8040B0A6020B90B
:100490004FF0FF340FF6302047E0E96A01706BE05F
:1004A0000A680A6052F8040B0A6020B94FF0FF3462
:1004B0000FF6142039E0EA6AD317C0E900235BE0A5
:1004C0000A680A6052F8040B0A6020B94FF0FF3442
:1004D0000FF6F41029E0E96A01804DE00A680A602D
:1004E00052F8040B0A6020B94FF0FF340FF6D81011
:1004F0001BE0E96A01603FE00A680A6052F8040BF9
:100500000A600021C5E90001EE607821284600F06C
:10051000BBF831E00868086050F8044B0860EC60F4
:100520003CB94FF0FF340FF6B81000F039FD201A37
:1005300070BD2E6B002E04D5204600F053FD0446FE
:1005400008E032460021204600F068FD002814BF74
:10055000041B3446AC610FE06869411C69612521C8
:10056000315409E06969481C6861252272542100F0
:1005700002D0411C69613454002070BD2DE9FC415A
:100580000F460646796B7869BC6A091A386A091AF7
:10059000B869091A786A091AF869091A97F83800C7
:1005A0000C1B410790460FD42021002C8DF8001021
:1005B0000ADD254601236A463946304600F060FCD4
:1005C00000285DD16D1EF5D17B6942463946304623
:1005D00000F056FC002853D130208DF800003D6A11
:1005E000002D09DD01236A463946304600F048FCFB
:1005F000002845D16D1EF5D1BB69FA6839463046F1
:1006000000F03EFC00283BD130208DF800007D6AD0
:10061000002D08DD01236A463946304600F030FCE3
:1006200070BB6D1EF6D1F868B969FB69421839468E
:10063000304600F025FC18BB30208DF80000BD6A64
:10064000002D08DD01236A463946304600F018FCCB
:10065000B0B96D1EF6D197F8380041070DD52021AD
:10066000002C8DF8001008DD01236A46394630461B
:1006700000F006FC20B9641EF6D10020BDE8F6812A
:100680004FF0FF30BDE8F6812DE9FC4707468A466A
:100690003E69BAF16F0F08BF082405D04AF0200167
:1006A000782914BF0A2410243C25D7E90023BAF185
:1006B000640F18BFBAF1690F9046994606D1002120
:1006C0008B4203DAD8F1000869EB49090020814523
:1006D00008BF80451FD1386BE8B9082C4CD197F87A
:1006E0003800010748D530203B2586F83B0043E021
:1006F00000280ED597F8380000F01400102808D113
:100700007A6B7869121A386A121A511A0029C8BF0E
:100710003962BDE8F3878DF800A04046494622467D
:10072000E31700F0A7FC3032D0B26D1E3A280195D5
:1007300004DB9DF80000A0F151018A187255404673
:1007400049462246E31700F095FC80468946002082
:10075000814508BF804503D0F86871198842DCD311
:10076000082C09D197F83800010705D5715D3029AB
:1007700002D06D1E30207055C5F13C01B961701971
:10078000F860386B8142B3DA411A39624FF6EF7084
:10079000398F01403987BDE8F3872DE9D0430646FC
:1007A0000F4614464FF00008DFF8389412E0E007D7
:1007B00007D542464B463046394600F073FD0646A3
:1007C0000F464046494642464B4600F06BFD6410DA
:1007D00080468946002CEAD130463946BDE8D083B0
:1007E0002DE9F34F054641F020048DB0D5E900898D
:1007F000612C02AE09D0286B002848BF062003D424
:1008000008BF672C01D101202863D5E900235800D7
:100810004015401C0ED119030CD00320A8619DF88F
:10082000380061381A2802D20FF2D06111E00FF2BD
:10083000D0610EE058004015401C0FD119030DD1B6
:100840000320A8619DF8380061381A2814D30FF2EC
:10085000B861E868032200F0F7FDD3E1194621F002
:100860000043B3F5801F10460DD20027BB4208BFDE
:10087000BA42019703D111E00FF28861E9E701AABA
:1008800000F036FE0AE0DFF8607307EB1352DFF882
:100890005C3301921940DFF858331943C5E9000170
:1008A000612C0ED1E86830210170811CE9609DF84F
:1008B000381061290CBF7821582141706869801C6B
:1008C0006861D5E900AB2BF0004300202AF000025C
:1008D000834204BF8242002300F05A81612C40F021
:1008E000A980286B00284CBF2120401C0090404666
:1008F000009F7F1C49460022002300F031FED946AC
:1009000001988DF8082038BF89F00049001F019038
:10091000002FD0460DF1090040F3498140F2FF71EC
:10092000DFF8D0B20C91064640464946002200232B
:1009300000F02EFE80F03A814800400D00F11C02CC
:1009400010D0002A0EDD0C98824205DB09F0004031
:1009500040EA0B01002013E0A448084040EA02519D
:1009600040460DE029F00043002028F000028342B9
:1009700008BF82420FBF40461C22404600F020FEC6
:100980008046894600F0BAFEFF1F002F044609DDAD
:1009900000F0D2FE02460B464046494600F0DEFE1D
:1009A00080468946F01D072104E004F00F0200F89C
:1009B000012D2411002C01DD491EF6D5491E5CBF16
:1009C000002200F8012DF9D5ECE00020194602AA1A
:1009D0000A4400E05B1E12F80149491E8442F9D026
:1009E0000F2804D10DF10900425C521C4254002929
:1009F00004D50198001D02AE5B1C0190591E12D453
:100A00009DF838007218147804F130085FFA88F401
:100A1000392CC4BFA0F13A04A044491E02F8018950
:100A2000F1D58DF83800286B002840F1B080591EB0
:100A30002963ACE0404649460022002300F090FDC7
:100A4000019938BF89F0004947F2975041436A4AFB
:100A500091FBF2F20192D2F1070204DD40464946D1
:100A6000FFF79BFE0AE0524200206449FFF795FE23
:100A700002460B464046494600F0E2FE8046662CA0
:100A8000286BDFF87CB106BF019F0A3706273F18A5
:100A9000142FC8BF142730208DF8080089460DF1A7
:100AA000090000E03046002F34DD06464046494646
:100AB00000F0EAFF01460A4606F1080304200A2670
:100AC000B2FBF6F606EB860EA2EB4E02303203F8CE
:100AD000012C0A22B6FBF2F202EB820EA6EB4E06C6
:100AE0003036401E03F8026DE9D1083F002F03F1B4
:100AF0000806D7DD084600F0DBFF02460B464046FD
:100B0000494600F02BFE00225B4600F0CBFB8046FE
:100B10008946CBE70DF10901401A0DF1090604E001
:100B20000199491E401E0191761C31783029F7D079
:100B3000662C02D10199491C03E0652C0CBF0121F0
:100B400000212B6BCB189842B8BF431E002B1ED43C
:100B5000834204DAF05C3528A8BF392000DA30205F
:100B60001946721E02EB010800E05B1E18F801999D
:100B7000491E8145F9D0392802D1705C401C70545F
:100B8000002904D50198401C16465B1C0190019871
:100B900000B200901BB29DF838103246284600F093
:100BA00034F82FE0C61D002F3FF7BEAE30460DF1E2
:100BB0000901401A009903468842C8BF0B46002B22
:100BC0000DF109063FF52FAF8342BFF6FEAE0DF1E2
:100BD0000900C05C07287FF7F8AE0F20F6E600009A
:100BE000CBCCCC0C0000244002FCFFFFFFFF0F80A9
:100BF0000000E03F0000F07FA08601000000F03F11
:100C000084D797410FB0BDE8F08F2DE9F84783B046
:100C100006468A461746984600F058FFB8F1000F7E
:100C2000406A356B90F8009003DC4FF001080FF23A
:100C3000DC27BDF930404AF02000662808BF641C5C
:100C400015D0672840F0848014F1040FC0F286802C
:100C5000AC4280F2838096F83800641C010702D40D
:100C6000A845B8BF454620B22D1A48BF00250FFA47
:100C700084FAF068B169BAF1000F25DC4A1C302310
:100C80004354002D03DC96F83800010703D5F068C3
:100C900000F80290521C15EB0A0FB8BF6C4220B24C
:100CA000441941424445B8BFA046B26171620FFA8F
:100CB00088F5F561F068B3692A463946184400F0B2
:100CC000C3FB641BB462C4E022B29045084417DA47
:100CD0004246394600F0B8FBB0694044B061AAEB27
:100CE0000801002D716203DC96F838100A0705D55B
:100CF000F16801F80090F069401CF061B562A8E06D
:100D0000394600F0A1FBB069002D5044A8EB04085F
:100D100003DC96F838100A0703D5F16801F8009053
:100D2000401CB0610FFA88F08542F068B369B8BF23
:100D3000A8460FFA88F207EB0A01184400F084FB7A
:100D4000B0690FFA88F10844B061681A706280E0F7
:100D5000BAF1610F14D14FF0700A16E0A84504DA19
:100D600096F838100A0758BF45466D1E48BF002543
:100D7000BAF1670F14BF4FF0450A4FF0650A04E05F
:100D8000BAF1410F08BF4FF0500AB169F368481C2F
:100D9000B061002D17F8012B5A5403DC96F8381077
:100DA0000A071BD5F168431CB36101F80090002DC0
:100DB00014DDA8F101080FFA88F08542F068B8BF89
:100DC000A8460FFA88F23946184400F03DFBB06996
:100DD0000FFA88F108446D1AB0617562F068B16964
:100DE0000844002C80F800A003D42B214170811C02
:100DF00003E02D2141706442811C00206A460AE014
:100E000023460A2493FBF4F404EB8405A3EB450387
:100E100002F8013B401C24B2002CF1DC012806DC66
:100E20004AF02002652A04BF302201F8012B48B99C
:100E3000302001F8010B07E0401E1DF80020303281
:100E400001F8012B0028F7DCF068B2691044091A98
:100E5000F16196F8380000F0140010280DD1716986
:100E6000B0694118706A4118F0694118B06A4118B8
:100E7000706B8142BCBF411A316204B0BDE8F0879B
:100E8000F8B505460E4617461C46002074B117F803
:100E9000011BB068A847B06030B1F06A401CF06236
:100EA0000020641EF3D1F2BD4FF0FF30F2BD000010
:100EB0007072696E74665F733A20256E2064697380
:100EC000616C6C6F776564007072696E74663A204D
:100ED00062616420256E20617267756D656E7400B5
:100EE0007072696E74665F733A2062616420257364
:100EF00020617267756D656E740000006E616E0032
:100F00004E414E00696E6600494E46003000F0B416
:100F10000246106895681318506803EB5004C00728
:100F200021D54D441FE0F0BC02F10C00704713F8CE
:100F3000017B05F8017B491EF9D1A0B1B60813F871
:100F4000011B06F00306032E08BF13F8016B01EB2B
:100F500006214942801C294405D011F8016B05F88F
:100F6000016B401EF9D1A342DDD013F8016B16F0DE
:100F7000030104BF13F8011BC91C30090F28DAD183
:100F800013F8010B0F30D6E70278C9B28A421AB1C2
:100F90001CBF10F8012FF9E718BF002070470000B0
:100FA00080B508B90FF21C0005490B681BB122225D
:100FB0000021984701E000F08FFD222002BD0000D3
:100FC000AC030020636F6E73747261696E74206885
:100FD000616E646C65723A20626164206D65737342
:100FE0006167650000F10103810704D010F8011B5F
:100FF00089B18107FAD10268B2F10131914311F050
:10100000803F04BF50F8042FF6E710F8011B11B120
:1010100010F8011BFBE7C01A70470000C9B2830734
:1010200006D0521E22D310F8013B9942F7D11FE09F
:10103000083A13D302F1040241EA012141EA0141D5
:1010400050F8043B121F21BF4B40A3F1013C2CEA96
:10105000030C1CF0803FF3D0C9B2001F083210F817
:10106000013B521E28BF91EA030FF8D818BF012098
:10107000401E7047B3BBD9B1B2F5803F7DD2022A82
:101080001ED98C46B1FBF2F102FB11C31B0443EAEB
:101090001043B3FBF2FC02FB1C3380B240EA034373
:1010A000B3FBF2F002FB103240EA0C400023704721
:1010B000022A05D98446B0FBF2F002FB10C2704749
:1010C0004AB105D100F0010249085FEA30007047DB
:1010D00000220023704700F003BD0B000200002136
:1010E00000207047904271EB030CF6D3B3F5803FBC
:1010F0002FD2F0B5B3FA83F7B1FA81F4A7F10F0E4E
:101100003D1B5340CEF1200602FA0EF2F34153404C
:10111000B5F10F0746D80F3C2C444140C4F12006DE
:10112000A040F1414140B1FBF3F603FB1611A2FBD5
:101130000645001BA94102D2761E8018594180EA5B
:10114000010221FA0EF362FA0EF200215A403046F3
:10115000F0BD30B4B1FBF3FC03FB1C11A2FB0C454A
:10116000001BA94103D2ACF1010C8018594130BCDD
:1011700002460B46604600217047B2F1807F65D37E
:10118000F0B5B2FA82F7B1FA81F4C7F10F063D1B50
:1011900022FA06F307F1110EF24120355A40B5F15B
:1011A0000F07B8D94140C4F12006A040F1414140A9
:1011B000B1FBF3FC03FB1C11A2FB0C45001BA94176
:1011C00003D2BCF1010C801859410F2F12D30F3FED
:1011D000C90341EA5041B1FBF3F603FB1611A2FB30
:1011E0000645D4EBC030A94102D2761E8018594181
:1011F00046EACC3C07B34140C7F12006B840F14174
:101200004140B1FBF3F603FB1611A2FB0645001BA0
:10121000A94102D2761E8018594180EA010221FAC2
:101220000EF3C7F1200462FA0EF20CFA07F05A40EE
:101230002CFA04F13043F0BD80EA010221FA0EF3EA
:10124000002162FA0EF260465A40F0BD8C46B1FBB6
:10125000F2F102FB11C31B0243EA1063B3FBF2FC81
:1012600002FB1C331B024CEA002043EA1063B3FB71
:10127000F2FC02FB1C331B024CEA002043EA106321
:10128000B3FBF2FC02FB1C331B024CEA002043EAD6
:101290001063B3FBF2FC02FB1C324CEA002000237B
:1012A00070470000B0B581EA030C0CF0004C40F22E
:1012B000FF7515EA11541DBF15EA1357AC42AF4232
:1012C00039E0E41923EA455343F48013C90241F09D
:1012D000004141EA505EC7021100A7FB020200284C
:1012E0004FF00000EEFB01204FF00001E3FB07216F
:1012F00018BF42F00102401800214941E3FB0E01F2
:10130000A4F580640F0302D252004041494154F1D8
:1013100001046CDD470872F1004250F1000051EB0E
:101320000451A1F580115CBF41EA0C01B0BD4CEA4B
:1013300005510020B0BD05EA1357AC4214BFAF42BF
:1013400041E050EA410E1CBF52EA430E02E0614602
:101350000020B0BD24423C441BD15FEA070EF6D00A
:10136000090302BF01460020AEF1140EB1FA81F765
:10137000AEEB070401FA07FE0C37C7F1200100FAB3
:1013800007F7C8404EEA000E23EA455343F48013A2
:10139000A2E733F00043B3FA83F704BFB2FA82FE48
:1013A00077440B3FE41BB7F1200E2FBF02FA0EF378
:1013B000BB40C7F1200E22FA0EFE38BF43EA0E03EF
:1013C000BA40641C82E750EA410E14BF52EA430E51
:1013D0006FF000014FF4001717EB430F8ABF194657
:1013E00017EB410FB5E74CEA05510020B0BDD4F131
:1013F0000104B4F120070FDAC4F12007520828BF16
:1014000042F0010210FA07F501FA07F7E1BF2A439B
:10141000E0403843E1400FE0352C98DCC7F1200470
:1014200052EA400220FA07F218BF42F0010231FAF4
:1014300007F0A1400A43002172F1004250F1000080
:1014400051EB0C01B0BD000062B38B0708D0521EF7
:1014500011F8013B00F8013B00F024808B07F6D126
:10146000830740F0208000BF103A07D330B4B1E8C2
:101470003810103AA0E83810F9D230BC530724BF16
:10148000B1E80810A0E8081044BF51F8043B40F848
:10149000043BD20724BF31F8022B20F8022B44BFB3
:1014A0000B7803707047121F17D35B0009D151F8F6
:1014B000043B20F8023B1B0C121F20F8023BF6D223
:1014C0000BE051F8043B00F8013B1B0A20F8023BFB
:1014D0001B0C121F00F8013BF3D238BF121D521E25
:1014E00024BF11F8013B00F8013BF8D87047000019
:1014F00010B5144600F002F8226010BDC1F30A5383
:1015000043B14A0012F5001F28D2A3F2FE32A1EB2C
:101510000251704750EA410C20D001F0004C31EAF2
:101520000C01B1FA81F204BFB0FA80F3D2180B3A81
:10153000B2F120032CBF00FA03F1914041EA0C0103
:101540003EBFC2F1200C20FA0CF3194390405242E6
:1015500040F2FD33D21A01EB03517047002270476D
:101560004FF4001C1CEB410F94BF1CEB430F09E030
:1015700041EA030C50EA4C0C52EA0C0C03D299429B
:1015800008BF9042704714BF8B42824270470000F0
:101590004FF4001C1CEB410F94BF1CEB430F09E000
:1015A00041EA030C50EA4C0C52EA0C0C03D28B4279
:1015B00008BF8242704714BF9942904270470000B2
:1015C000124254D440F2FF7C1CEA11530FD0634501
:1015D00031D09B1863453CBF01EB0251704701F0CD
:1015E000004141EA0C510020AFF30080704750EAFF
:1015F000410320D001F0004C91EA0C011CD0B1FA5B
:1016000081F30B3B9A420DD9D21A994051EA0C0151
:10161000C3F1200C20FA0CFC61449840531C40F2AA
:10162000FF7CD7E7914041EA0C01C2F1200C20FA7F
:101630000CF3194390407047B0FA80F31533202B18
:10164000E0D3202AEED3203A203B9A4209D9D21A7D
:1016500000FA03F141EA0C010020531C40F2FF7C28
:10166000B8E700FA02F141EA0C010020704752424B
:1016700040F2FF7C1CEA11530DD06345DBD0B2EB86
:10168000030C3CBFA1EB025170470CF1010221EAAF
:10169000035141F4801150EA410CCCD001F0004CD0
:1016A000352A27DC30B481EA0C01B2F1200309DAD3
:1016B000C2F12003044601FA03F5D0402843D1408B
:1016C0009C400CE0C3F12002450020FA03F418BF4F
:1016D00044F0010421FA03F091400C43002174F11D
:1016E000004550F1000051EB0C01244230BC7FF466
:1016F0007BAF70476146002076E70000C1F30A53D4
:1017000040F2FE329B1A14DDD3F120034FEAE1725E
:1017100008DDC90241EA505141F00040D84080182C
:101720005040704703F2E13010B1D24382F00040E4
:101730007047002070470000C11768B14840401A48
:10174000B0FA80F29040D21CC907C2F5846241EA27
:10175000025202EBD02140057047000070B44FF0F8
:10176000004591EA030F40F1BD816B40841A71EB93
:10177000030603D2001BB141121973414FF4001C40
:101780001CEB410F34BF7CEB430442E00C0DA4EB97
:101790001356352E4FDC45EAC323DB0A45EAC12147
:1017A000C912B6F120050DDD63FA05F6EB4086EAB5
:1017B0000305124218BF45F00105C01851F10001A0
:1017C0000CD213E062FA06F5F2405540F3415A405C
:1017D000B340F3405A408018594107D349085FEAA3
:1017E00030005FEA350528BF45F0010501F580119D
:1017F000420875F1004250F1000041EB04514E00E7
:1018000016F5001F70BC38BF70470020090D090590
:1018100070471CEB410F10D252EA43060BD0BCEBD1
:10182000410F05D80C0DAB43661E342EB6DD02E029
:10183000AB438018594170BC704770BC70470000C2
:10184000F0B540F2FF7581EA030C0CF0004C15EA8C
:1018500011541DBF15EA1357AC42AF42E5E0BC413D
:10186000C1F31301C3F31303801A994143F48013A6
:1018700004D2641E4000494180185941C90241EA1E
:101880005051B1FBF3F603FB1611A2FB0675D7EB23
:10189000C020A94102D2761E80185941C90241EAEE
:1018A0005051B1FBF3FE03FB1E11A2FB0E75D7EBEB
:1018B000C020A94103D2AEF1010E8018594189021E
:1018C00041EA9051760546EA8E2EB1FBF3F603FB12
:1018D0001611A2FB0675D7EB8020A94102D2761E15
:1018E00080185941C90241EA50514EEA060EB1FB37
:1018F000F3F603FB1611A2FB0675D7EBC020A94136
:1019000002D2761E80185941C90241EA5051B1FBFA
:10191000F3F703FB1711A2FB0735D3EBC020A94156
:1019200067F100070CBF004247F0010766F3D527B7
:101930004FEA1E31B80814F5806412DDBD0775F159
:10194000004250EB0E5051EB045111F5801F5CBF6B
:1019500041EA0C01F0BD4CF07F6141F0E041002014
:10196000F0BDBD076D0840EA0E5041F48011D4F17E
:101970000104B4F120060ADAC4F120060200E040B6
:1019800001FA06F3E1401843B24015430EE0342C4F
:1019900013DCC6F1200445EA40056D0820FA06F282
:1019A000154321FA06F0A1400D43002175F10042D4
:1019B00050F1000051EB0C01F0BD00205FEA0C017A
:1019C000F0BDCFB992185B41B3FA83F704BFB2FA06
:1019D00082F6BF190B3FB7F120062FBF02FA06F3BC
:1019E000BB40C7F1200622FA06F638BF3343BA409F
:1019F0001CB1E419641E33E77F4231F00041B1FAB3
:101A000081F404BFB0FA80F6A4190B3CB4F12006AF
:101A10002FBF00FA06F1A140C4F1200620FA06F615
:101A200038BF3143A0403C1B1AE7AC421ABF05EA5D
:101A30001357AF4212E050EA41061CBF52EA430678
:101A4000BFE750EA4107304661461CBF41EA0551F5
:101A5000F0BD52EA430C08BFC143F0BD00204FF473
:101A6000001616EB410F98BF16EB430F08BF16EB9D
:101A7000410F24BFC14305E016EB430F0CBF614685
:101A80004CEA0551F0BD0000400D491840EA8120A4
:101A90000CD2490DA1F58061491C40F0004005DBE6
:101AA000D1F11F0154BFC840C017704700207047D4
:101AB000014648B1B0FA80F18840C91CC1F5846183
:101AC000090501EBD021400570470000014870472F
:101AD000000000005C010020012000F0B7B8000009
:101AE00070470000841A71EB030604D26E40001B9D
:101AF000B141121973414FF4001C1CEB410F34BF6C
:101B00007CEB430682E00C0DA4EB1356362E7BDCF7
:101B1000012E45EAC32341DC43EA525312BFD202ED
:101B200092025B08240545EAC12141EA5051D2EBFB
:101B3000C020994125D407D1B0FA80F610FA06F1F9
:101B400062D00020203608E0B1FA81F6B140C6F13B
:101B5000200220FA02F21143B0404FEAF474B4EBD1
:101B6000465434F001064FEA74040AD8D6F500163C
:101B7000760D04F00044F04061FA06F25040F14066
:101B80004840C00A40EA415021F0004128BF5FEAC6
:101B9000500550F1000044EBD12135E0DB0A45EA65
:101BA000C121C90AB6F120050EDD42EA0242120C3B
:101BB000C5F1200603FA06F6EB4042EA06056D423F
:101BC000984161F100010DE062FA06F5F2405540DE
:101BD00063FA06FC82EA0C02F3405A406D429041DF
:101BE00061EB030111F4801F05D1641E620502D070
:101BF0006D004041494121F48011430875F10043D3
:101C000050F1000041EB045170BC70471CEB410FD8
:101C100015D223F0004352EA43060BD04FEA4C0C96
:101C2000BCEB410F04D80C0D661E342EB7DDEBE77C
:101C3000801A994150EA410608BF0021E4E708BF35
:101C40001CEB430F28BF6FF00001DDE780B5AFF359
:101C50000080024A11001820ABBEFBE726000200FC
:101C600080B50121102000F057FC0121082000F070
:101C700053FC0121042000F04FFC6220ADF800006D
:101C800010208DF8030003208DF802006946DFF86C
:101C90008C0300F073FC4FF46070ADF8000010206E
:101CA0008DF8030003208DF802006946DFF86C030D
:101CB00000F064FC0220ADF8000003208DF8020063
:101CC00018208DF803006946DFF8540300F056FC35
:101CD0003020ADF8000003208DF8020010208DF8B0
:101CE00003006946DFF8380300F048FC2021DFF8E4
:101CF000300300F0AFFC1021DFF8240300F0AAFC51
:101D000001BD10B504000120DFF818130860002C95
:101D100001D5644204E04021DFF8000300F09AFCA2
:101D2000DFF80403046001215FF0804000F054FDFF
:101D300010BD10B504000120DFF8F0120860002C7F
:101D400001D5644204E04FF40071B44800F082FC15
:101D5000B74804600121B74800F03EFD10BD10B542
:101D60000C00FFF7CEFF2000FFF7E3FF10BD10B51A
:101D70000400B1480068401CAF490860002C06D53B
:101D80000020AD4908604021A44800F066FC022014
:101D9000A9490968A84A126892FBF0F200FB1210E8
:101DA00000281DD1A4480068B0EB440F13D10020D7
:101DB0009C4908600221994800F04FFC4021974857
:101DC00000F04BFC00209C49086000215FF080403F
:101DD00000F002FD08E00221904800F03EFC03E024
:101DE00002218E4800F036FC934800689349086051
:101DF00010BD10B5040092480068401C904908606E
:101E0000002C07D500208E4908604FF400718348EC
:101E100000F023FC02208A490968894A126892FB73
:101E2000F0F200FB121000281DD185480068B0EBCD
:101E3000440F13D100207D4908608021774800F0CD
:101E40000CFC4FF40071754800F007FC00207C4941
:101E500008600021774800F0BFFC08E080216F484F
:101E600000F0FBFB03E080216C4800F0F3FB10BDA9
:101E700010B5744A1368C31A734A12688A1A714CEF
:101E8000206071480160002B0AD1002A08D00A2086
:101E900042431000FFF74DFF00206249086018E040
:101EA000002B0AD0002A08D10A2043431800FFF76C
:101EB00028FF00205D4908600BE0002B09D0002AB4
:101EC00007D00A20424311000A2043431800FFF7BD
:101ED00046FF544800685549096808430028F8D16E
:101EE00010BD1FB50400642000F0F2FC7020ADF8B6
:101EF00000000120ADF802000020ADF80800012C20
:101F000004D148F2D040ADF8060003E045F6C050D9
:101F1000ADF8060069464D4800F019FC012C04D1CB
:101F20004FF4967000F0D4FC02E0962000F0D0FC54
:101F30001FBD80B520213A4800F082FB012808D15E
:101F40001021374800F086FB2021354800F085FB42
:101F50000DE01021324800F073FB012807D1202149
:101F60002F4800F077FB10212D4800F076FB01BDD3
:101F700038B586B0062291FBF2F2032391FBF3F110
:101F8000304B1B68304C24689D1A03950493D2187B
:101F90000592621A0092019409190291012804D154
:101FA000694603A800F054F836E0022804D16946D7
:101FB00003A800F063F82FE0032804D1694603A8C2
:101FC00000F0A2F828E0042804D1694603A800F034
:101FD000D7F821E0052804D1694603A800F0FEF8EF
:101FE0001AE0062804D1694603A800F035F913E089
:101FF000072804D1694603A800F078F90CE0082806
:1020000004D1694603A800F09FF905E0092803D12F
:10201000694603A800F0E2F907B030BD000C0140AA
:102020000008014098030020880300209C03002042
:102030008C03002000040040A4030020A003002023
:10204000A803002090030020940300200008004013
:1020500038B504000D00A9686068FFF709FF01208A
:10206000FFF73FFF29686068FFF702FF0020FFF7D6
:1020700038FF69686068FFF7FBFE31BD38B50400C2
:102080000D00A9682068FFF7F3FE0120FFF729FF84
:10209000A968A068FFF7ECFE0020FFF722FF0120EF
:1020A000FFF71FFF6968A068FFF7E2FE0020FFF757
:1020B00018FF69682068FFF7DBFE0120FFF711FFBA
:1020C0006968A068FFF7D4FE0020FFF70AFF69687F
:1020D0002068FFF7CDFE0120FFF703FF2968206885
:1020E000FFF7C6FE0020FFF7FCFE0120FFF7F9FE18
:1020F0002968A068FFF7BCFE0020FFF7F2FE6968C0
:102100006068FFF7B5FE31BD38B504000D00A96861
:102110002068FFF7ADFE0120FFF7E3FEA968A06885
:10212000FFF7A6FE0020FFF7DCFE0120FFF7D9FE37
:102130002968A068FFF79CFE0020FFF7D2FE6968BF
:102140002068FFF795FE0120FFF7CBFE6968A068C5
:10215000FFF78EFE0020FFF7C4FE29682068FFF716
:1021600087FE0120FFF7BDFE2968A068FFF780FE0B
:102170000020FFF7B6FE69686068FFF779FE31BDA1
:1021800038B504000D00A9682068FFF771FE012032
:10219000FFF7A7FE69682068FFF76AFE0020FFF7D7
:1021A000A0FE0120FFF79DFE6968A068FFF760FEB2
:1021B0000020FFF796FEA968A068FFF759FE0120EE
:1021C000FFF78FFE2968A068FFF752FE0020FFF797
:1021D00088FE69686068FFF74BFE31BD38B50400C2
:1021E0000D00A968A068FFF743FE0120FFF779FE04
:1021F000A9682068FFF73CFE0020FFF772FE01206F
:10220000FFF76FFE69682068FFF732FE0020FFF7D6
:1022100068FE0120FFF765FE6968A068FFF728FEE9
:102220000020FFF75EFE0120FFF75BFE2968A06833
:10223000FFF71EFE0020FFF754FE0120FFF751FEBE
:1022400029682068FFF714FE0020FFF74AFE69683E
:102250006068FFF70DFE31BD38B504000D00A968B8
:102260002068FFF705FE0120FFF73BFEA968A06884
:10227000FFF7FEFD0020FFF734FEA9682068FFF796
:10228000F7FD0120FFF72DFE29682068FFF7F0FD1C
:102290000020FFF726FE69682068FFF7E9FD0120AE
:1022A000FFF71FFE6968A068FFF7E2FD0020FFF757
:1022B00018FE0120FFF715FE2968A068FFF7D8FD7A
:1022C0000020FFF70EFE29682068FFF7D1FD0120EE
:1022D000FFF707FE2968A068FFF7CAFD0020FFF797
:1022E00000FE69686068FFF7C3FD31BD38B50400C2
:1022F0000D00A9682068FFF7BBFD0120FFF7F1FD85
:1023000069682068FFF7B4FD0020FFF7EAFDA968BF
:102310002068FFF7ADFD0120FFF7E3FDA968A06885
:10232000FFF7A6FD0020FFF7DCFD0120FFF7D9FD38
:102330002968A068FFF79CFD0020FFF7D2FD6968BF
:102340006068FFF795FD31BD38B504000D00A96840
:102350002068FFF78DFD0120FFF7C3FD2968206885
:10236000FFF786FD0020FFF7BCFDA9682068FFF796
:102370007FFD0120FFF7B5FDA968A068FFF778FD94
:102380000020FFF7AEFD0120FFF7ABFD2968A06834
:10239000FFF76EFD0020FFF7A4FD69682068FFF7D6
:1023A00067FD0120FFF79DFD6968A068FFF760FDEC
:1023B0000020FFF796FD29682068FFF759FD0120EE
:1023C000FFF78FFD2968A068FFF752FD0020FFF797
:1023D00088FD69686068FFF74BFD31BD38B50400C2
:1023E0000D00A9682068FFF743FD0120FFF779FD84
:1023F00069682068FFF73CFD0020FFF772FD0120AF
:10240000FFF76FFD6968A068FFF732FD0020FFF756
:1024100068FDA9682068FFF72BFD0120FFF761FD2B
:10242000A968A068FFF724FD0020FFF75AFD0120EE
:10243000FFF757FD2968A068FFF71AFD0020FFF796
:1024400050FD69686068FFF713FD31BD0021424906
:10245000096831F4E06108433F4908607047002192
:102460000021002100213C49096811F00C010029DC
:1024700004D0042905D0082906D021E0374901609D
:1024800020E0374901601DE033490A6812F47012F8
:102490003149096811F48031920C921C002903D152
:1024A00030494A4302600AE02B490968890303D591
:1024B0002D494A43026002E029494A43026001E093
:1024C000264901602449096811F0F0010909274AE9
:1024D000515C0268CA4042601F49096811F4E0611A
:1024E000090A224A515C4268CA4082601A49096856
:1024F00011F46051C90A1D4A515C4268CA40C26069
:102500001549096811F44041890B194A515CC268A8
:10251000B2FBF1F101617047C9B2002905D015493C
:10252000096808431349086005E01249096831EA5F
:102530000000104908607047C9B2002905D00E4953
:10254000096808430C49086005E00B49096831EA4D
:1025500000000949086070470410024000127A0028
:10256000001BB70000093D00808D5B004801002082
:1025700058010020181002401C10024070B40022C4
:1025800000220022002200220022CB7813F00F0349
:10259000CA78D20601D58A7813430A78120621D068
:1025A000066800241BE0CA78482A17D10122A240FD
:1025B000026113E00125A5400A882A40AA420DD1F4
:1025C000A2000F259540AE4313FA02F232431600E3
:1025D000CA78282AE7D10122A2404261641C082C53
:1025E000E8D306600A88B2F5807F27DB45680024BF
:1025F00021E0012214F1080612FA06F60A88324098
:10260000B24217D1A2000F269640B54313FA02F248
:102610002A431500CA78282A04D1012614F1080299
:1026200096404661CA78482A04D1012614F108026E
:1026300096400661641C082CDBD3456070BC704773
:102640000022806889B2084201D0012000E0002009
:10265000C0B2704789B20161704789B24161704769
:1026600010B400220F2311F00302D2B2920013FA29
:1026700002F2114B0C00E4B2A41053F8243033EAF8
:1026800002020D4B0C00E4B2A41043F824200A4AC5
:102690000B00DBB29B1052F82330C0B211F00302E2
:1026A000D2B2920090401843034AC9B2891042F84E
:1026B000210010BC70470000080001400022038880
:1026C000DFF88C21904212D0DFF89C2190420ED08E
:1026D000B0F1804F0BD0DFF87C21904207D0DFF8BB
:1026E0007821904203D0DFF87421904204D14FF654
:1026F0008F7213404A881343DFF86421904208D058
:10270000DFF86021904204D04FF6FF421340CA88A0
:10271000134303808A8882850A880285DFF8302186
:1027200090420FD0DFF8402190420BD0DFF83C21DF
:10273000904207D0DFF83821904203D0DFF83421EF
:10274000904201D1097A018601218182704730B41B
:10275000002200220022038C4FF6EF721340038404
:10276000058C8388048B48F6FF7214404FF6FF42B5
:1027700014400A8854EA02244FF6DF7215400A8991
:1027800055EA02154A8855EA0215DFF8C42090423E
:1027900003D0DFF8E420904217D14FF67F72154046
:1027A0004A8955EA02154FF6BF7215408A8855EAE4
:1027B00002154FF6FF3213404FF2FF7213408A8921
:1027C00053EA8203CA8953EA820383800483C98857
:1027D0000187058430BC7047C9B2002904D0018844
:1027E00051F00101018004E002884FF6FE710A40B9
:1027F00002807047D2B2002A03D0828911438181BE
:1028000003E0828932EA0101818170470185828279
:102810007047C9B2002904D0018851F080010180BD
:1028200004E002884FF67F710A4002807047002260
:10283000038B4FF2FF72134053EA01230383704767
:1028400089B2C9430182704789B2C9430182704786
:10285000002C01400004004000080040000C004033
:1028600000100040001400400034014000400140CE
:10287000004401400048014000340140020052B2CF
:10288000002A08D509011C4A40B210F00F0010447C
:1028900000F8041C03E00901184A40B211547047C3
:1028A00080B5B0F1807F01D3012010E020F07F409F
:1028B000401E134908600F215FF0FF30FFF7DEFF75
:1028C00000201049086007200F490860002002BD61
:1028D00001B400980D4908600C4800680028FBD13D
:1028E00001B0704709480068002804D00748006814
:1028F000401E06490860704718ED00E000E400E063
:1029000014E000E018E000E010E000E070030020B8
:1029100080B500684FF47A71B0FBF1F0FFF7C0FFAB
:10292000002800D0FEE701BD00B585B000F00EF92B
:102930006846FFF794FD6846FFF7EAFFFFF790F956
:1029400000F0C0F900F091FA00F055FA00F070FACA
:1029500000F030FB00F002F900F061F907E04FF4FD
:1029600048516C48FFF7FBF90120FFF7B1FF6A48B7
:1029700000F0CAFA69490860684800686128EED02A
:1029800066480068732810D100215FF08040FFF78F
:1029900023FF00216248FFF71FFF00206149086004
:1029A0004FF44850FFF7C5F9DEE75C48006864283B
:1029B00007D100215A48FFF70FFF5B48FFF7A1F945
:1029C000D2E75648006866282AD100215FF080408F
:1029D000FFF702FF534800684FF4B46190FBF1F039
:1029E000524908605FF0FF30FFF7C1F95FF0FF3038
:1029F000FFF7FFF9FFF79DFA4C4801687FF00700E9
:102A000041434A480068C000FFF7A9F971214248D4
:102A100000F048FB45480168454800F055FBA3E736
:102A20003E480068302803DA3C4800683A2841DA1A
:102A300040480168481C3F4A10603F4A3F480368CD
:102A40002420434302EB030050F821003349096876
:102A50003039884201D1012000E00020C0B2354861
:102A60000068092807D135480068401C33490860D0
:102A700000203049086031480068092808D1002149
:102A80000020FFF7F5F97721234800F00BFB6BE7F7
:102A900026480168294800684143494223480068A4
:102AA000244A12685043FFF7E3F971211A4800F0F5
:102AB000F9FA59E71948006867287FF455AF0020F4
:102AC0001F49086015E01F4B1B4A1F4801681C483E
:102AD000006800F00DFB1C480068401C1A490860A3
:102AE000194800680928EEDB15480068401C1449A5
:102AF000086013480068092803DA002012490860BA
:102B0000EEE70A4802680F490B4800F0C0FB0020BE
:102B100005B000BD80C1FFFF004800407C030020DD
:102B200000040040A0030020E0B1FFFF44010020AA
:102B3000F4370008840300200000002080030020F8
:102B400074030020DC0100207803002080B500F031
:102B5000DDFB4FF4E060FFF779FC01BD80B500219B
:102B60005FF0006000F0AEFC06208DF80000002051
:102B70008DF8010000208DF8020001208DF803007F
:102B8000684600F06FFC07208DF8000000208DF8EB
:102B9000010000208DF8020001208DF80300684636
:102BA00000F060FC08208DF8000000208DF8010086
:102BB00000208DF8020001208DF80300684600F027
:102BC00051FC09208DF8000000208DF80100002044
:102BD0008DF8020001208DF80300684600F042FCE9
:102BE0001C208DF8000001208DF8010000208DF8D8
:102BF000020001208DF80300684600F033FC1D2020
:102C00008DF8000001208DF8010000208DF80200F1
:102C100001208DF80300684600F024FC01BDE0B5FA
:102C20002748006850F00100254908600021022073
:102C3000FFF716FD0120009000208DF80400082009
:102C40008DF8050001208DF80600684600F04CFC68
:102C500001210220FFF704FD0220009000208DF8E2
:102C6000040008208DF8050001208DF80600684654
:102C700000F03AFC04210220FFF7F2FC042000904F
:102C800000208DF8040008208DF8050001208DF843
:102C90000600684600F028FC05210220FFF7E0FC52
:102CA0000820009000208DF8040008208DF8050011
:102CB00001208DF80600684600F016FC07BD0000F4
:102CC0001810024000B587B001210420FFF734FC42
:102CD00001210220FFF730FC01210120FFF72CFC2D
:102CE00040F2F310ADF804001320ADF8000000200E
:102CF000ADF806000020ADF8020069465FF08040A4
:102D0000FFF7DCFC012217215FF08040FFF77EFD1A
:102D100001215FF08040FFF793FD012201215FF068
:102D20008040FFF767FD69462048FFF7C7FC012296
:102D300017211E48FFF76AFD01211C48FFF780FD9F
:102D4000012201211948FFF755FD4CF24F30ADF833
:102D500004000020ADF800000020ADF806000020BF
:102D6000ADF8020069461248FFF7A8FC7020ADF8E4
:102D70000C000120ADF80E0045F6C050ADF8120071
:102D80000020ADF8140003A90948FFF7E0FC082172
:102D90000748FFF74CFD01210548FFF73AFD0121E7
:102DA0000348FFF719FD07B000BD00BF0004004055
:102DB0000008004010B504000A2C0ED10D214E4829
:102DC00000F070F980214C4800F070F90028F9D02B
:102DD0000A21494800F066F905E02100C9B289B22C
:102DE000454800F05FF98021434800F05FF9002872
:102DF000F9D0200010BDF8B55FF4E130009000205C
:102E0000ADF804000020ADF806000020ADF8080081
:102E10000020ADF80C000C20ADF80A0069463648D9
:102E200000F0D2F80121344800F02EF905B000BDC1
:102E3000F8B55FF4E13000900020ADF80400002008
:102E4000ADF806000020ADF808000020ADF80C0039
:102E50000C20ADF80A006946284800F0B5F80121B9
:102E6000264800F011F905B000BD80B5012104200D
:102E7000FFF752FB01214FF48040FFF74DFB01218A
:102E80000820FFF759FB01215FF48020FFF754FB76
:102E90004FF40070ADF8000003208DF802001820F8
:102EA0008DF8030069461648FFF768FB4FF4806011
:102EB000ADF8000004208DF8030069461048FFF7C4
:102EC0005DFB4FF48060ADF8000003208DF8020038
:102ED00018208DF8030069460A48FFF74FFB4FF4AE
:102EE0000060ADF8000004208DF803006946054835
:102EF000FFF744FB01BD00000038014000480040DE
:102F000000080140000C014038B5040020212000D9
:102F100000F0CCF80028F9D0200000F016F80500E9
:102F20002900C9B289B2200000F0BCF8802120003D
:102F300000F0BCF80028F9D02800C0B20D2801D15B
:102F40000A2001E02800C0B232BD8088C005C00D53
:102F50007047000080B501211020FFF7DDFA012045
:102F6000ADF8000004208DF8030069461548FFF70E
:102F700005FB01BD80B501211020FFF7CDFA02202D
:102F8000ADF8000004208DF8030069460D48FFF7F6
:102F9000F5FA01BD80B501211020FFF7BDFA302000
:102FA000ADF8000004208DF8030069460548FFF7DE
:102FB000E5FA01BD80B5FFF7CDFFFFF7DBFFFFF7B7
:102FC000E9FF01BD0010014030B585B005000C00DF
:102FD00000200020002000200020A0890028298A4D
:102FE0004CF6FF700140E08801432982A9894EF622
:102FF000F3100140A28820890243608902431143F3
:10300000A981A98A4FF6FF400140A0890143A98206
:103010006846FFF724FA1B48854201D1039900E076
:103020000299A889000406D5192041432068400070
:10303000B1FBF0F205E01920414320688000B1FBAC
:10304000F0F26420B2FBF0F109010B001B096420CF
:1030500000FB1322A889000408D5D0003230642276
:10306000B0FBF2F010F00700014307E0100132302E
:103070006422B0FBF2F010F00F000143298105B08B
:1030800030BD000000380140C9B2002904D0818958
:1030900051F40051818104E082894DF6FF710A40AC
:1030A00082817047C905C90D8180704700220A00DE
:1030B00092B2B2F5007F0088084201D0012000E002
:1030C0000020C0B2704700000EB4C0B5024603A88D
:1030D00000210190009101AB0121044878440C309B
:1030E000FDF704F806BC5DF810FB00BFD506000034
:1030F0002DE9F04104000D0016001F00242000FB04
:1031000004F0304450F82500002807D02420444320
:1031100007EB0400012140F825101CE05FF00108D6
:1031200001E018F10108B8F10A0F0EDA3300424647
:103130002900200000F011F80128F2D12420444396
:1031400006EB040040F8258005E03B003200290032
:10315000200000F044F8BDE8F081F0B4032490FBB7
:10316000F4F503246543032491FBF4F6032466433A
:10317000002400E0641C092C09DA242707FB00F76F
:103180001F4457F824709742F4D1002025E0002016
:1031900000E0401C092809DA242404FB00F41C4444
:1031A00054F821409442F4D1002016E0002100E0C0
:1031B000491C032910DA002400E0641C032CF7DA10
:1031C0004F192420474303EB0700A71950F82700A5
:1031D0009042F2D1002000E00120F0BC70472DE9C0
:1031E000F04105000E0014001F000020761E16F1AD
:1031F000010F01D16D1E0826242000FB05F0384484
:1032000050F826000128F1D03C4805603C48066093
:10321000242000FB05F0204450F8268018F1010816
:10322000B8F10A0F0DDB242000FB05F0204400213B
:1032300040F826103B00220031002800FFF7CFFFA6
:1032400023E011E0B8F1090F0CD1242000FB05F0B8
:103250002044002140F826103B00220031002800C5
:10326000FFF7BDFF18F10108B8F10A0F0DDA2300CE
:10327000424631002800FFF770FF0128E2D12420E8
:10328000454304EB050040F82680BDE8F0812DE9B8
:10329000F04104000D00160000275FF0000809E06F
:1032A0001848016808FB16111748006807FB06005C
:1032B000FEF7DEFD242000FB08F0284450F827002C
:1032C000002808D13100242000FB08F0204450F8E9
:1032D0002700FEF74DFE7F1C092FE1D118F10108F0
:1032E0000027B8F1090FDBD1002006480168064825
:1032F0000068FEF7BDFDBDE8F0810000740300200A
:1033000078030020840300208003002080B54E480D
:10331000006850F001004C4908604C4801684C4876
:1033200001404A480160484801684A48014046480F
:1033300001604548006830F48020434908604348F4
:10334000006830F4FE00414908605FF41F00424904
:10335000086000F005F85FF000604049086001BDBA
:1033600080B500F001F801BD82B00020019000207E
:1033700000903548006850F4803033490860324886
:10338000006810F4003000900198401C01900098F3
:10339000002803D10198B0F5A06FF0D12A48006849
:1033A000800302D50120009001E0002000900098E9
:1033B000012847D12A48006850F0100028490860C9
:1033C0002748006880088000254908602448006874
:1033D00050F00200224908601C4800681B49086040
:1033E0001A480068194908601848006850F480605D
:1033F000164908601548006830F47C1013490860CD
:103400001248006850F48810104908600E4800689F
:1034100050F080700C4908600B4800688001FBD5B3
:103420000A4800688008800008490860074800686A
:1034300050F00200054908600448006810F00C00D4
:103440000828F9D102B07047001002400410024071
:103450000000FFF8FFFFF6FE0810024008ED00E054
:1034600000200240002100210F23C17800291ED036
:103470001749096811F4E061D1F5E061090AD1F159
:103480000402CB40417811FA02F281780B401A43D2
:10349000120110490378CA540121027812F01F0268
:1034A00091400D4A0078401142F8201009E00121B6
:1034B000027812F01F029140084A0078401142F849
:1034C00020107047064A11400843064908607047BB
:1034D0000CED00E000E400E000E100E080E100E04D
:1034E00080FFFF1F08ED00E000212A4A81790029B2
:1034F00035D028490B6801688B4326490B60264963
:103500000B6801688B4324490B6001798A181368A2
:1035100001680B43136021490A6801688A431F4907
:103520000A601F490A6801688A431D490A60417997
:1035300010290CD119490A6801680A4317490A6021
:103540001749096800680143154801600DE0114AF8
:1035500041798A18116800680143116005E001791A
:103560008A181168006881431160704700210021AA
:103570000849096801400B4A1268024203D0002939
:1035800001D0012000E00020C0B27047054908606A
:103590007047000000040140040401400804014099
:1035A0000C040140140401407047FEE7FEE7FEE70B
:1035B000FEE770477047704780B5FFF793F901BD8C
:1035C00070477047704770477047704780B501205B
:1035D000FFF7CCFF00280BD020213E48FFF73AF838
:1035E0004FF480713B48FFF735F80120FFF7CEFF1D
:1035F00001BD80B50220FFF7B9FF00280BD02021C4
:103600003448FFF72AF84FF480713248FFF725F865
:103610000220FFF7BBFF01BD80B50420FFF7A6FF26
:1036200000280BD000215FF08040FFF7D5F8402143
:103630002848FFF712F80420FFF7A8FF01BD80B566
:103640000820FFF793FF002806D000212248FFF74B
:10365000C3F80820FFF79AFF01BD70477047704715
:1036600070477047704770477047704770477047A2
:10367000704770477047704770477047704780B514
:1036800001215FF08040FFF7DFF814480068FEF783
:103690006EFB01BD80B501210F48FFF7D5F810483A
:1036A0000068FEF7A6FB01BD704770477047704782
:1036B0007047704770477047704770477047704752
:1036C00080B5084800F010F85FF48020FFF75EFF37
:1036D00001BD0000000C01400004004088030020F0
:1036E0008C030020A8370008704719E050F8042B1D
:1036F000D30744BFA9F101039A18091F0023042925
:1037000042F8043BF9D25FEA817C134604D54FF0BE
:10371000000CA2F800C09B1CC90744BF002119700F
:1037200050F8041B0029E1D17047000010B507498B
:1037300079441831064C7C44163404E00A68081DAC
:10374000114488470146A142F8D110BD080000008D
:103750002400000097FFFFFFD4010000DC010020DF
:1037600000000000ABD7FFFF78010000340100002B
:103770000000002000F00DF8002801D0FFF7D6FF70
:10378000AFF300800020AFF30080FFF7CDF800F02A
:1037900002F80120704700F001B8000007463846E3
:1037A000FEF754FAFBE7000055534257616B65552D
:1037B000705F49525148616E646C65720000000090
:1037C00038B504460D46284600F006F8A84218BF52
:1037D0000024204632BD00000149FFF7EBBA00BFCC
:1037E0009401002001488047014800470D3300083C
:1037F0000138000873697A65203A2025640A0000C0
:10380000AFF30080AFF30080FFF7B4FF00002E009D
:10381000FFF7CABEFFF7C9BEFFF7C8BEFFF7C7BEB6
:10382000FFF7C6BEFFF7C5BEFFF7C4BEFFF7C3BEB6
:10383000FFF7C2BEFFF7C4BEFFF7C3BEFFF7C2BEAD
:10384000FFF7C1BEFFF7C0BEFFF7BFBEFFF7BEBEAA
:10385000FFF7CFBEFFF7E0BEFFF7F1BEFFF7FDBEFB
:10386000FFF7FCBEFFF7FBBEFFF7FABEFFF7F9BE9E
:10387000FFF7F8BEFFF7F7BEFFF7F6BEFFF7F5BE9E
:10388000FFF7F4BEFFF7F3BEFFF7F2BEFFF7F1BE9E
:10389000FFF7F0BEFFF7EFBEFFF7EEBEFFF7EDBE9E
:1038A000FFF7ECBEFFF7EBBEFFF7F4BEFFF7FCBE81
:1038B000FFF7FBBEFFF7FABEFFF7F9BEFFF7F8BE52
:1038C000FFF7F7BEFFF7F6BEFFF7F5BEFFF7F4BE52
:1038D000FFF7F3BEFFF7F2BEFFF7F1BEFFF7F0BE52
:1038E000400409000000040001520208F30107002F
:1038F00001920114920830612C52080C9202289215
:10390000030CF305090001213052051CD2032421C8
:1039100010830600706101920174F206055892044A
:1039200018A1D0520854613883090050A1BCF2029A
:1039300004586114613C21382134621410200102C2
:10394000030404F0090806070809020406080C38F5
:10395000000452FF01F2000E14115410060401017C
:1039600020030020700452200421636108F0070E38
:0A397000D8010020C401002000016E
:0400000508003801B6
:00000001FF
